{
  "_format": "hh-sol-artifact-1",
  "contractName": "DarkNFT",
  "sourceName": "contracts/DarkNFT.sol",
  "abi": [
    {
      "inputs": [],
      "stateMutability": "nonpayable",
      "type": "constructor"
    },
    {
      "anonymous": false,
      "inputs": [
        {
          "indexed": true,
          "internalType": "address",
          "name": "owner",
          "type": "address"
        },
        {
          "indexed": true,
          "internalType": "address",
          "name": "approved",
          "type": "address"
        },
        {
          "indexed": true,
          "internalType": "uint256",
          "name": "tokenId",
          "type": "uint256"
        }
      ],
      "name": "Approval",
      "type": "event"
    },
    {
      "anonymous": false,
      "inputs": [
        {
          "indexed": true,
          "internalType": "address",
          "name": "owner",
          "type": "address"
        },
        {
          "indexed": true,
          "internalType": "address",
          "name": "operator",
          "type": "address"
        },
        {
          "indexed": false,
          "internalType": "bool",
          "name": "approved",
          "type": "bool"
        }
      ],
      "name": "ApprovalForAll",
      "type": "event"
    },
    {
      "anonymous": false,
      "inputs": [
        {
          "indexed": true,
          "internalType": "address",
          "name": "from",
          "type": "address"
        },
        {
          "indexed": true,
          "internalType": "address",
          "name": "to",
          "type": "address"
        },
        {
          "indexed": true,
          "internalType": "uint256",
          "name": "tokenId",
          "type": "uint256"
        }
      ],
      "name": "Transfer",
      "type": "event"
    },
    {
      "inputs": [
        {
          "internalType": "address",
          "name": "to",
          "type": "address"
        },
        {
          "internalType": "uint256",
          "name": "tokenId",
          "type": "uint256"
        }
      ],
      "name": "approve",
      "outputs": [],
      "stateMutability": "nonpayable",
      "type": "function"
    },
    {
      "inputs": [
        {
          "internalType": "address",
          "name": "owner",
          "type": "address"
        }
      ],
      "name": "balanceOf",
      "outputs": [
        {
          "internalType": "uint256",
          "name": "",
          "type": "uint256"
        }
      ],
      "stateMutability": "view",
      "type": "function"
    },
    {
      "inputs": [
        {
          "internalType": "uint256",
          "name": "tokenId",
          "type": "uint256"
        }
      ],
      "name": "getApproved",
      "outputs": [
        {
          "internalType": "address",
          "name": "",
          "type": "address"
        }
      ],
      "stateMutability": "view",
      "type": "function"
    },
    {
      "inputs": [],
      "name": "getTotalNumber",
      "outputs": [
        {
          "internalType": "uint256",
          "name": "",
          "type": "uint256"
        }
      ],
      "stateMutability": "view",
      "type": "function"
    },
    {
      "inputs": [
        {
          "internalType": "address",
          "name": "owner",
          "type": "address"
        },
        {
          "internalType": "address",
          "name": "operator",
          "type": "address"
        }
      ],
      "name": "isApprovedForAll",
      "outputs": [
        {
          "internalType": "bool",
          "name": "",
          "type": "bool"
        }
      ],
      "stateMutability": "view",
      "type": "function"
    },
    {
      "inputs": [
        {
          "internalType": "address",
          "name": "to",
          "type": "address"
        },
        {
          "internalType": "string",
          "name": "uri",
          "type": "string"
        }
      ],
      "name": "mintDarkNFT",
      "outputs": [],
      "stateMutability": "nonpayable",
      "type": "function"
    },
    {
      "inputs": [],
      "name": "name",
      "outputs": [
        {
          "internalType": "string",
          "name": "",
          "type": "string"
        }
      ],
      "stateMutability": "view",
      "type": "function"
    },
    {
      "inputs": [
        {
          "internalType": "uint256",
          "name": "tokenId",
          "type": "uint256"
        }
      ],
      "name": "ownerOf",
      "outputs": [
        {
          "internalType": "address",
          "name": "",
          "type": "address"
        }
      ],
      "stateMutability": "view",
      "type": "function"
    },
    {
      "inputs": [
        {
          "internalType": "address",
          "name": "from",
          "type": "address"
        },
        {
          "internalType": "address",
          "name": "to",
          "type": "address"
        },
        {
          "internalType": "uint256",
          "name": "tokenId",
          "type": "uint256"
        }
      ],
      "name": "safeTransferFrom",
      "outputs": [],
      "stateMutability": "nonpayable",
      "type": "function"
    },
    {
      "inputs": [
        {
          "internalType": "address",
          "name": "from",
          "type": "address"
        },
        {
          "internalType": "address",
          "name": "to",
          "type": "address"
        },
        {
          "internalType": "uint256",
          "name": "tokenId",
          "type": "uint256"
        },
        {
          "internalType": "bytes",
          "name": "data",
          "type": "bytes"
        }
      ],
      "name": "safeTransferFrom",
      "outputs": [],
      "stateMutability": "nonpayable",
      "type": "function"
    },
    {
      "inputs": [
        {
          "internalType": "address",
          "name": "operator",
          "type": "address"
        },
        {
          "internalType": "bool",
          "name": "approved",
          "type": "bool"
        }
      ],
      "name": "setApprovalForAll",
      "outputs": [],
      "stateMutability": "nonpayable",
      "type": "function"
    },
    {
      "inputs": [
        {
          "internalType": "bytes4",
          "name": "interfaceId",
          "type": "bytes4"
        }
      ],
      "name": "supportsInterface",
      "outputs": [
        {
          "internalType": "bool",
          "name": "",
          "type": "bool"
        }
      ],
      "stateMutability": "view",
      "type": "function"
    },
    {
      "inputs": [],
      "name": "symbol",
      "outputs": [
        {
          "internalType": "string",
          "name": "",
          "type": "string"
        }
      ],
      "stateMutability": "view",
      "type": "function"
    },
    {
      "inputs": [
        {
          "internalType": "uint256",
          "name": "tokenId",
          "type": "uint256"
        }
      ],
      "name": "tokenURI",
      "outputs": [
        {
          "internalType": "string",
          "name": "",
          "type": "string"
        }
      ],
      "stateMutability": "view",
      "type": "function"
    },
    {
      "inputs": [
        {
          "internalType": "address",
          "name": "from",
          "type": "address"
        },
        {
          "internalType": "address",
          "name": "to",
          "type": "address"
        },
        {
          "internalType": "uint256",
          "name": "tokenId",
          "type": "uint256"
        }
      ],
      "name": "transferFrom",
      "outputs": [],
      "stateMutability": "nonpayable",
      "type": "function"
    }
  ],
  "bytecode": "0x60806040523480156200001157600080fd5b506040518060400160405280600781526020017f4461726b4e4654000000000000000000000000000000000000000000000000008152506040518060400160405280600381526020017f444e54000000000000000000000000000000000000000000000000000000000081525081600090816200008f919062000324565b508060019081620000a1919062000324565b5050506200040b565b600081519050919050565b7f4e487b7100000000000000000000000000000000000000000000000000000000600052604160045260246000fd5b7f4e487b7100000000000000000000000000000000000000000000000000000000600052602260045260246000fd5b600060028204905060018216806200012c57607f821691505b602082108103620001425762000141620000e4565b5b50919050565b60008190508160005260206000209050919050565b60006020601f8301049050919050565b600082821b905092915050565b600060088302620001ac7fffffffffffffffffffffffffffffffffffffffffffffffffffffffffffffffff826200016d565b620001b886836200016d565b95508019841693508086168417925050509392505050565b6000819050919050565b6000819050919050565b600062000205620001ff620001f984620001d0565b620001da565b620001d0565b9050919050565b6000819050919050565b6200022183620001e4565b6200023962000230826200020c565b8484546200017a565b825550505050565b600090565b6200025062000241565b6200025d81848462000216565b505050565b5b8181101562000285576200027960008262000246565b60018101905062000263565b5050565b601f821115620002d4576200029e8162000148565b620002a9846200015d565b81016020851015620002b9578190505b620002d1620002c8856200015d565b83018262000262565b50505b505050565b600082821c905092915050565b6000620002f960001984600802620002d9565b1980831691505092915050565b6000620003148383620002e6565b9150826002028217905092915050565b6200032f82620000aa565b67ffffffffffffffff8111156200034b576200034a620000b5565b5b62000357825462000113565b6200036482828562000289565b600060209050601f8311600181146200039c576000841562000387578287015190505b62000393858262000306565b86555062000403565b601f198416620003ac8662000148565b60005b82811015620003d657848901518255600182019150602085019450602081019050620003af565b86831015620003f65784890151620003f2601f891682620002e6565b8355505b6001600288020188555050505b505050505050565b612c79806200041b6000396000f3fe608060405234801561001057600080fd5b50600436106100f55760003560e01c806370a0823111610097578063b88d4fde11610066578063b88d4fde14610282578063c87b56dd1461029e578063d026b7f7146102ce578063e985e9c5146102ec576100f5565b806370a08231146101fc57806395d89b411461022c5780639f967f191461024a578063a22cb46514610266576100f5565b8063095ea7b3116100d3578063095ea7b31461017857806323b872dd1461019457806342842e0e146101b05780636352211e146101cc576100f5565b806301ffc9a7146100fa57806306fdde031461012a578063081812fc14610148575b600080fd5b610114600480360381019061010f91906118fa565b61031c565b6040516101219190611942565b60405180910390f35b6101326103fe565b60405161013f91906119ed565b60405180910390f35b610162600480360381019061015d9190611a45565b610490565b60405161016f9190611ab3565b60405180910390f35b610192600480360381019061018d9190611afa565b6104d6565b005b6101ae60048036038101906101a99190611b3a565b6105ed565b005b6101ca60048036038101906101c59190611b3a565b61064d565b005b6101e660048036038101906101e19190611a45565b61066d565b6040516101f39190611ab3565b60405180910390f35b61021660048036038101906102119190611b8d565b61071e565b6040516102239190611bc9565b60405180910390f35b6102346107d5565b60405161024191906119ed565b60405180910390f35b610264600480360381019061025f9190611d19565b610867565b005b610280600480360381019061027b9190611da1565b610939565b005b61029c60048036038101906102979190611e82565b61094f565b005b6102b860048036038101906102b39190611a45565b6109b1565b6040516102c591906119ed565b60405180910390f35b6102d66109c3565b6040516102e39190611bc9565b60405180910390f35b61030660048036038101906103019190611f05565b6109cd565b6040516103139190611942565b60405180910390f35b60007f80ac58cd000000000000000000000000000000000000000000000000000000007bffffffffffffffffffffffffffffffffffffffffffffffffffffffff1916827bffffffffffffffffffffffffffffffffffffffffffffffffffffffff191614806103e757507f5b5e139f000000000000000000000000000000000000000000000000000000007bffffffffffffffffffffffffffffffffffffffffffffffffffffffff1916827bffffffffffffffffffffffffffffffffffffffffffffffffffffffff1916145b806103f757506103f682610a61565b5b9050919050565b60606000805461040d90611f74565b80601f016020809104026020016040519081016040528092919081815260200182805461043990611f74565b80156104865780601f1061045b57610100808354040283529160200191610486565b820191906000526020600020905b81548152906001019060200180831161046957829003601f168201915b5050505050905090565b600061049b82610acb565b6004600083815260200190815260200160002060009054906101000a900473ffffffffffffffffffffffffffffffffffffffff169050919050565b60006104e18261066d565b90508073ffffffffffffffffffffffffffffffffffffffff168373ffffffffffffffffffffffffffffffffffffffff1603610551576040517f08c379a000000000000000000000000000000000000000000000000000000000815260040161054890612017565b60405180910390fd5b8073ffffffffffffffffffffffffffffffffffffffff16610570610b16565b73ffffffffffffffffffffffffffffffffffffffff16148061059f575061059e81610599610b16565b6109cd565b5b6105de576040517f08c379a00000000000000000000000000000000000000000000000000000000081526004016105d5906120a9565b60405180910390fd5b6105e88383610b1e565b505050565b6105fe6105f8610b16565b82610bd7565b61063d576040517f08c379a00000000000000000000000000000000000000000000000000000000081526004016106349061213b565b60405180910390fd5b610648838383610c6c565b505050565b6106688383836040518060200160405280600081525061094f565b505050565b6000806002600084815260200190815260200160002060009054906101000a900473ffffffffffffffffffffffffffffffffffffffff169050600073ffffffffffffffffffffffffffffffffffffffff168173ffffffffffffffffffffffffffffffffffffffff1603610715576040517f08c379a000000000000000000000000000000000000000000000000000000000815260040161070c906121a7565b60405180910390fd5b80915050919050565b60008073ffffffffffffffffffffffffffffffffffffffff168273ffffffffffffffffffffffffffffffffffffffff160361078e576040517f08c379a000000000000000000000000000000000000000000000000000000000815260040161078590612239565b60405180910390fd5b600360008373ffffffffffffffffffffffffffffffffffffffff1673ffffffffffffffffffffffffffffffffffffffff168152602001908152602001600020549050919050565b6060600180546107e490611f74565b80601f016020809104026020016040519081016040528092919081815260200182805461081090611f74565b801561085d5780601f106108325761010080835404028352916020019161085d565b820191906000526020600020905b81548152906001019060200180831161084057829003601f168201915b5050505050905090565b6103e8600854106108ad576040517f08c379a00000000000000000000000000000000000000000000000000000000081526004016108a4906122a5565b60405180910390fd5b60016108b88361071e565b106108f8576040517f08c379a00000000000000000000000000000000000000000000000000000000081526004016108ef90612337565b60405180910390fd5b60006109046007610ed2565b90506109106007610ee0565b61091a8382610ef6565b6109248183610f14565b61092e6007610ed2565b600881905550505050565b61094b610944610b16565b8383610f81565b5050565b61096061095a610b16565b83610bd7565b61099f576040517f08c379a00000000000000000000000000000000000000000000000000000000081526004016109969061213b565b60405180910390fd5b6109ab848484846110ed565b50505050565b60606109bc82611149565b9050919050565b6000600854905090565b6000600560008473ffffffffffffffffffffffffffffffffffffffff1673ffffffffffffffffffffffffffffffffffffffff16815260200190815260200160002060008373ffffffffffffffffffffffffffffffffffffffff1673ffffffffffffffffffffffffffffffffffffffff16815260200190815260200160002060009054906101000a900460ff16905092915050565b60007f01ffc9a7000000000000000000000000000000000000000000000000000000007bffffffffffffffffffffffffffffffffffffffffffffffffffffffff1916827bffffffffffffffffffffffffffffffffffffffffffffffffffffffff1916149050919050565b610ad48161125b565b610b13576040517f08c379a0000000000000000000000000000000000000000000000000000000008152600401610b0a906121a7565b60405180910390fd5b50565b600033905090565b816004600083815260200190815260200160002060006101000a81548173ffffffffffffffffffffffffffffffffffffffff021916908373ffffffffffffffffffffffffffffffffffffffff160217905550808273ffffffffffffffffffffffffffffffffffffffff16610b918361066d565b73ffffffffffffffffffffffffffffffffffffffff167f8c5be1e5ebec7d5bd14f71427d1e84f3dd0314c0f7b2291e5b200ac8c7c3b92560405160405180910390a45050565b600080610be38361066d565b90508073ffffffffffffffffffffffffffffffffffffffff168473ffffffffffffffffffffffffffffffffffffffff161480610c255750610c2481856109cd565b5b80610c6357508373ffffffffffffffffffffffffffffffffffffffff16610c4b84610490565b73ffffffffffffffffffffffffffffffffffffffff16145b91505092915050565b8273ffffffffffffffffffffffffffffffffffffffff16610c8c8261066d565b73ffffffffffffffffffffffffffffffffffffffff1614610ce2576040517f08c379a0000000000000000000000000000000000000000000000000000000008152600401610cd9906123c9565b60405180910390fd5b600073ffffffffffffffffffffffffffffffffffffffff168273ffffffffffffffffffffffffffffffffffffffff1603610d51576040517f08c379a0000000000000000000000000000000000000000000000000000000008152600401610d489061245b565b60405180910390fd5b610d5c8383836112c7565b610d67600082610b1e565b6001600360008573ffffffffffffffffffffffffffffffffffffffff1673ffffffffffffffffffffffffffffffffffffffff1681526020019081526020016000206000828254610db791906124aa565b925050819055506001600360008473ffffffffffffffffffffffffffffffffffffffff1673ffffffffffffffffffffffffffffffffffffffff1681526020019081526020016000206000828254610e0e91906124de565b92505081905550816002600083815260200190815260200160002060006101000a81548173ffffffffffffffffffffffffffffffffffffffff021916908373ffffffffffffffffffffffffffffffffffffffff160217905550808273ffffffffffffffffffffffffffffffffffffffff168473ffffffffffffffffffffffffffffffffffffffff167fddf252ad1be2c89b69c2b068fc378daa952ba7f163c4a11628f55a4df523b3ef60405160405180910390a4610ecd8383836112cc565b505050565b600081600001549050919050565b6001816000016000828254019250508190555050565b610f108282604051806020016040528060008152506112d1565b5050565b610f1d8261125b565b610f5c576040517f08c379a0000000000000000000000000000000000000000000000000000000008152600401610f5390612584565b60405180910390fd5b80600660008481526020019081526020016000209081610f7c9190612750565b505050565b8173ffffffffffffffffffffffffffffffffffffffff168373ffffffffffffffffffffffffffffffffffffffff1603610fef576040517f08c379a0000000000000000000000000000000000000000000000000000000008152600401610fe69061286e565b60405180910390fd5b80600560008573ffffffffffffffffffffffffffffffffffffffff1673ffffffffffffffffffffffffffffffffffffffff16815260200190815260200160002060008473ffffffffffffffffffffffffffffffffffffffff1673ffffffffffffffffffffffffffffffffffffffff16815260200190815260200160002060006101000a81548160ff0219169083151502179055508173ffffffffffffffffffffffffffffffffffffffff168373ffffffffffffffffffffffffffffffffffffffff167f17307eab39ab6107e8899845ad3d59bd9653f200f220920489ca2b5937696c31836040516110e09190611942565b60405180910390a3505050565b6110f8848484610c6c565b6111048484848461132c565b611143576040517f08c379a000000000000000000000000000000000000000000000000000000000815260040161113a90612900565b60405180910390fd5b50505050565b606061115482610acb565b600060066000848152602001908152602001600020805461117490611f74565b80601f01602080910402602001604051908101604052809291908181526020018280546111a090611f74565b80156111ed5780601f106111c2576101008083540402835291602001916111ed565b820191906000526020600020905b8154815290600101906020018083116111d057829003601f168201915b5050505050905060006111fe6114b3565b90506000815103611213578192505050611256565b60008251111561124857808260405160200161123092919061295c565b60405160208183030381529060405292505050611256565b611251846114ca565b925050505b919050565b60008073ffffffffffffffffffffffffffffffffffffffff166002600084815260200190815260200160002060009054906101000a900473ffffffffffffffffffffffffffffffffffffffff1673ffffffffffffffffffffffffffffffffffffffff1614159050919050565b505050565b505050565b6112db8383611532565b6112e8600084848461132c565b611327576040517f08c379a000000000000000000000000000000000000000000000000000000000815260040161131e90612900565b60405180910390fd5b505050565b600061134d8473ffffffffffffffffffffffffffffffffffffffff1661170b565b156114a6578373ffffffffffffffffffffffffffffffffffffffff1663150b7a02611376610b16565b8786866040518563ffffffff1660e01b815260040161139894939291906129d5565b6020604051808303816000875af19250505080156113d457506040513d601f19601f820116820180604052508101906113d19190612a36565b60015b611456573d8060008114611404576040519150601f19603f3d011682016040523d82523d6000602084013e611409565b606091505b50600081510361144e576040517f08c379a000000000000000000000000000000000000000000000000000000000815260040161144590612900565b60405180910390fd5b805181602001fd5b63150b7a0260e01b7bffffffffffffffffffffffffffffffffffffffffffffffffffffffff1916817bffffffffffffffffffffffffffffffffffffffffffffffffffffffff1916149150506114ab565b600190505b949350505050565b606060405180602001604052806000815250905090565b60606114d582610acb565b60006114df6114b3565b905060008151116114ff576040518060200160405280600081525061152a565b806115098461172e565b60405160200161151a92919061295c565b6040516020818303038152906040525b915050919050565b600073ffffffffffffffffffffffffffffffffffffffff168273ffffffffffffffffffffffffffffffffffffffff16036115a1576040517f08c379a000000000000000000000000000000000000000000000000000000000815260040161159890612aaf565b60405180910390fd5b6115aa8161125b565b156115ea576040517f08c379a00000000000000000000000000000000000000000000000000000000081526004016115e190612b1b565b60405180910390fd5b6115f6600083836112c7565b6001600360008473ffffffffffffffffffffffffffffffffffffffff1673ffffffffffffffffffffffffffffffffffffffff168152602001908152602001600020600082825461164691906124de565b92505081905550816002600083815260200190815260200160002060006101000a81548173ffffffffffffffffffffffffffffffffffffffff021916908373ffffffffffffffffffffffffffffffffffffffff160217905550808273ffffffffffffffffffffffffffffffffffffffff16600073ffffffffffffffffffffffffffffffffffffffff167fddf252ad1be2c89b69c2b068fc378daa952ba7f163c4a11628f55a4df523b3ef60405160405180910390a4611707600083836112cc565b5050565b6000808273ffffffffffffffffffffffffffffffffffffffff163b119050919050565b606060008203611775576040518060400160405280600181526020017f30000000000000000000000000000000000000000000000000000000000000008152509050611889565b600082905060005b600082146117a757808061179090612b3b565b915050600a826117a09190612bb2565b915061177d565b60008167ffffffffffffffff8111156117c3576117c2611bee565b5b6040519080825280601f01601f1916602001820160405280156117f55781602001600182028036833780820191505090505b5090505b600085146118825760018261180e91906124aa565b9150600a8561181d9190612be3565b603061182991906124de565b60f81b81838151811061183f5761183e612c14565b5b60200101907effffffffffffffffffffffffffffffffffffffffffffffffffffffffffffff1916908160001a905350600a8561187b9190612bb2565b94506117f9565b8093505050505b919050565b6000604051905090565b600080fd5b600080fd5b60007fffffffff0000000000000000000000000000000000000000000000000000000082169050919050565b6118d7816118a2565b81146118e257600080fd5b50565b6000813590506118f4816118ce565b92915050565b6000602082840312156119105761190f611898565b5b600061191e848285016118e5565b91505092915050565b60008115159050919050565b61193c81611927565b82525050565b60006020820190506119576000830184611933565b92915050565b600081519050919050565b600082825260208201905092915050565b60005b8381101561199757808201518184015260208101905061197c565b60008484015250505050565b6000601f19601f8301169050919050565b60006119bf8261195d565b6119c98185611968565b93506119d9818560208601611979565b6119e2816119a3565b840191505092915050565b60006020820190508181036000830152611a0781846119b4565b905092915050565b6000819050919050565b611a2281611a0f565b8114611a2d57600080fd5b50565b600081359050611a3f81611a19565b92915050565b600060208284031215611a5b57611a5a611898565b5b6000611a6984828501611a30565b91505092915050565b600073ffffffffffffffffffffffffffffffffffffffff82169050919050565b6000611a9d82611a72565b9050919050565b611aad81611a92565b82525050565b6000602082019050611ac86000830184611aa4565b92915050565b611ad781611a92565b8114611ae257600080fd5b50565b600081359050611af481611ace565b92915050565b60008060408385031215611b1157611b10611898565b5b6000611b1f85828601611ae5565b9250506020611b3085828601611a30565b9150509250929050565b600080600060608486031215611b5357611b52611898565b5b6000611b6186828701611ae5565b9350506020611b7286828701611ae5565b9250506040611b8386828701611a30565b9150509250925092565b600060208284031215611ba357611ba2611898565b5b6000611bb184828501611ae5565b91505092915050565b611bc381611a0f565b82525050565b6000602082019050611bde6000830184611bba565b92915050565b600080fd5b600080fd5b7f4e487b7100000000000000000000000000000000000000000000000000000000600052604160045260246000fd5b611c26826119a3565b810181811067ffffffffffffffff82111715611c4557611c44611bee565b5b80604052505050565b6000611c5861188e565b9050611c648282611c1d565b919050565b600067ffffffffffffffff821115611c8457611c83611bee565b5b611c8d826119a3565b9050602081019050919050565b82818337600083830152505050565b6000611cbc611cb784611c69565b611c4e565b905082815260208101848484011115611cd857611cd7611be9565b5b611ce3848285611c9a565b509392505050565b600082601f830112611d0057611cff611be4565b5b8135611d10848260208601611ca9565b91505092915050565b60008060408385031215611d3057611d2f611898565b5b6000611d3e85828601611ae5565b925050602083013567ffffffffffffffff811115611d5f57611d5e61189d565b5b611d6b85828601611ceb565b9150509250929050565b611d7e81611927565b8114611d8957600080fd5b50565b600081359050611d9b81611d75565b92915050565b60008060408385031215611db857611db7611898565b5b6000611dc685828601611ae5565b9250506020611dd785828601611d8c565b9150509250929050565b600067ffffffffffffffff821115611dfc57611dfb611bee565b5b611e05826119a3565b9050602081019050919050565b6000611e25611e2084611de1565b611c4e565b905082815260208101848484011115611e4157611e40611be9565b5b611e4c848285611c9a565b509392505050565b600082601f830112611e6957611e68611be4565b5b8135611e79848260208601611e12565b91505092915050565b60008060008060808587031215611e9c57611e9b611898565b5b6000611eaa87828801611ae5565b9450506020611ebb87828801611ae5565b9350506040611ecc87828801611a30565b925050606085013567ffffffffffffffff811115611eed57611eec61189d565b5b611ef987828801611e54565b91505092959194509250565b60008060408385031215611f1c57611f1b611898565b5b6000611f2a85828601611ae5565b9250506020611f3b85828601611ae5565b9150509250929050565b7f4e487b7100000000000000000000000000000000000000000000000000000000600052602260045260246000fd5b60006002820490506001821680611f8c57607f821691505b602082108103611f9f57611f9e611f45565b5b50919050565b7f4552433732313a20617070726f76616c20746f2063757272656e74206f776e6560008201527f7200000000000000000000000000000000000000000000000000000000000000602082015250565b6000612001602183611968565b915061200c82611fa5565b604082019050919050565b6000602082019050818103600083015261203081611ff4565b9050919050565b7f4552433732313a20617070726f76652063616c6c6572206973206e6f7420746f60008201527f6b656e206f776e6572206e6f7220617070726f76656420666f7220616c6c0000602082015250565b6000612093603e83611968565b915061209e82612037565b604082019050919050565b600060208201905081810360008301526120c281612086565b9050919050565b7f4552433732313a2063616c6c6572206973206e6f7420746f6b656e206f776e6560008201527f72206e6f7220617070726f766564000000000000000000000000000000000000602082015250565b6000612125602e83611968565b9150612130826120c9565b604082019050919050565b6000602082019050818103600083015261215481612118565b9050919050565b7f4552433732313a20696e76616c696420746f6b656e2049440000000000000000600082015250565b6000612191601883611968565b915061219c8261215b565b602082019050919050565b600060208201905081810360008301526121c081612184565b9050919050565b7f4552433732313a2061646472657373207a65726f206973206e6f74206120766160008201527f6c6964206f776e65720000000000000000000000000000000000000000000000602082015250565b6000612223602983611968565b915061222e826121c7565b604082019050919050565b6000602082019050818103600083015261225281612216565b9050919050565b7f4f6e6c79203130303020746f6b656e2063616e206265206d6e696e7465640000600082015250565b600061228f601e83611968565b915061229a82612259565b602082019050919050565b600060208201905081810360008301526122be81612282565b9050919050565b7f4f6e6c79206f6e65204e46542070657220706572736f6e20697320616c6c6f7760008201527f6564000000000000000000000000000000000000000000000000000000000000602082015250565b6000612321602283611968565b915061232c826122c5565b604082019050919050565b6000602082019050818103600083015261235081612314565b9050919050565b7f4552433732313a207472616e736665722066726f6d20696e636f72726563742060008201527f6f776e6572000000000000000000000000000000000000000000000000000000602082015250565b60006123b3602583611968565b91506123be82612357565b604082019050919050565b600060208201905081810360008301526123e2816123a6565b9050919050565b7f4552433732313a207472616e7366657220746f20746865207a65726f2061646460008201527f7265737300000000000000000000000000000000000000000000000000000000602082015250565b6000612445602483611968565b9150612450826123e9565b604082019050919050565b6000602082019050818103600083015261247481612438565b9050919050565b7f4e487b7100000000000000000000000000000000000000000000000000000000600052601160045260246000fd5b60006124b582611a0f565b91506124c083611a0f565b92508282039050818111156124d8576124d761247b565b5b92915050565b60006124e982611a0f565b91506124f483611a0f565b925082820190508082111561250c5761250b61247b565b5b92915050565b7f45524337323155524953746f726167653a2055524920736574206f66206e6f6e60008201527f6578697374656e7420746f6b656e000000000000000000000000000000000000602082015250565b600061256e602e83611968565b915061257982612512565b604082019050919050565b6000602082019050818103600083015261259d81612561565b9050919050565b60008190508160005260206000209050919050565b60006020601f8301049050919050565b600082821b905092915050565b6000600883026126067fffffffffffffffffffffffffffffffffffffffffffffffffffffffffffffffff826125c9565b61261086836125c9565b95508019841693508086168417925050509392505050565b6000819050919050565b600061264d61264861264384611a0f565b612628565b611a0f565b9050919050565b6000819050919050565b61266783612632565b61267b61267382612654565b8484546125d6565b825550505050565b600090565b612690612683565b61269b81848461265e565b505050565b5b818110156126bf576126b4600082612688565b6001810190506126a1565b5050565b601f821115612704576126d5816125a4565b6126de846125b9565b810160208510156126ed578190505b6127016126f9856125b9565b8301826126a0565b50505b505050565b600082821c905092915050565b600061272760001984600802612709565b1980831691505092915050565b60006127408383612716565b9150826002028217905092915050565b6127598261195d565b67ffffffffffffffff81111561277257612771611bee565b5b61277c8254611f74565b6127878282856126c3565b600060209050601f8311600181146127ba57600084156127a8578287015190505b6127b28582612734565b86555061281a565b601f1984166127c8866125a4565b60005b828110156127f0578489015182556001820191506020850194506020810190506127cb565b8683101561280d5784890151612809601f891682612716565b8355505b6001600288020188555050505b505050505050565b7f4552433732313a20617070726f766520746f2063616c6c657200000000000000600082015250565b6000612858601983611968565b915061286382612822565b602082019050919050565b600060208201905081810360008301526128878161284b565b9050919050565b7f4552433732313a207472616e7366657220746f206e6f6e20455243373231526560008201527f63656976657220696d706c656d656e7465720000000000000000000000000000602082015250565b60006128ea603283611968565b91506128f58261288e565b604082019050919050565b60006020820190508181036000830152612919816128dd565b9050919050565b600081905092915050565b60006129368261195d565b6129408185612920565b9350612950818560208601611979565b80840191505092915050565b6000612968828561292b565b9150612974828461292b565b91508190509392505050565b600081519050919050565b600082825260208201905092915050565b60006129a782612980565b6129b1818561298b565b93506129c1818560208601611979565b6129ca816119a3565b840191505092915050565b60006080820190506129ea6000830187611aa4565b6129f76020830186611aa4565b612a046040830185611bba565b8181036060830152612a16818461299c565b905095945050505050565b600081519050612a30816118ce565b92915050565b600060208284031215612a4c57612a4b611898565b5b6000612a5a84828501612a21565b91505092915050565b7f4552433732313a206d696e7420746f20746865207a65726f2061646472657373600082015250565b6000612a99602083611968565b9150612aa482612a63565b602082019050919050565b60006020820190508181036000830152612ac881612a8c565b9050919050565b7f4552433732313a20746f6b656e20616c7265616479206d696e74656400000000600082015250565b6000612b05601c83611968565b9150612b1082612acf565b602082019050919050565b60006020820190508181036000830152612b3481612af8565b9050919050565b6000612b4682611a0f565b91507fffffffffffffffffffffffffffffffffffffffffffffffffffffffffffffffff8203612b7857612b7761247b565b5b600182019050919050565b7f4e487b7100000000000000000000000000000000000000000000000000000000600052601260045260246000fd5b6000612bbd82611a0f565b9150612bc883611a0f565b925082612bd857612bd7612b83565b5b828204905092915050565b6000612bee82611a0f565b9150612bf983611a0f565b925082612c0957612c08612b83565b5b828206905092915050565b7f4e487b7100000000000000000000000000000000000000000000000000000000600052603260045260246000fdfea26469706673582212207f5415913b96bfb3ec14775efab92da64e1db43cac44b01e214a0a44e2cf221564736f6c63430008110033",
  "linkReferences": {},
  "deployedLinkReferences": {}
}